{
  "contractName": "Interface",
  "abi": [
    {
      "constant": false,
      "inputs": [
        {
          "name": "lender",
          "type": "address"
        }
      ],
      "name": "AcceptDetailRequest",
      "outputs": [],
      "payable": false,
      "stateMutability": "nonpayable",
      "type": "function"
    },
    {
      "constant": false,
      "inputs": [
        {
          "name": "_age",
          "type": "uint256"
        },
        {
          "name": "_fName",
          "type": "string"
        },
        {
          "name": "_lName",
          "type": "string"
        },
        {
          "name": "_creditRating",
          "type": "uint256"
        },
        {
          "name": "_term",
          "type": "uint256"
        },
        {
          "name": "_amount",
          "type": "uint256"
        },
        {
          "name": "_pan",
          "type": "string"
        },
        {
          "name": "_purpose",
          "type": "string"
        },
        {
          "name": "_phoneNumber",
          "type": "string"
        },
        {
          "name": "_aadhar",
          "type": "string"
        },
        {
          "name": "_city",
          "type": "string"
        },
        {
          "name": "_company",
          "type": "string"
        }
      ],
      "name": "setBorrower",
      "outputs": [],
      "payable": false,
      "stateMutability": "nonpayable",
      "type": "function"
    },
    {
      "constant": true,
      "inputs": [
        {
          "name": "_address",
          "type": "address"
        }
      ],
      "name": "getBorrowerFull",
      "outputs": [
        {
          "name": "",
          "type": "string"
        },
        {
          "name": "",
          "type": "string"
        },
        {
          "name": "",
          "type": "uint256"
        },
        {
          "name": "",
          "type": "uint256"
        },
        {
          "name": "",
          "type": "uint256"
        },
        {
          "name": "",
          "type": "string"
        },
        {
          "name": "",
          "type": "string"
        }
      ],
      "payable": false,
      "stateMutability": "view",
      "type": "function"
    },
    {
      "constant": false,
      "inputs": [
        {
          "name": "borrower",
          "type": "address"
        }
      ],
      "name": "RequestBorrowerDetails",
      "outputs": [],
      "payable": false,
      "stateMutability": "nonpayable",
      "type": "function"
    },
    {
      "constant": true,
      "inputs": [],
      "name": "getBorrowers",
      "outputs": [
        {
          "name": "",
          "type": "address[]"
        }
      ],
      "payable": false,
      "stateMutability": "view",
      "type": "function"
    },
    {
      "constant": true,
      "inputs": [
        {
          "name": "borrower",
          "type": "address"
        },
        {
          "name": "lender",
          "type": "address"
        }
      ],
      "name": "getRequestDetail",
      "outputs": [
        {
          "name": "",
          "type": "address"
        },
        {
          "name": "",
          "type": "address"
        },
        {
          "name": "",
          "type": "bool"
        }
      ],
      "payable": false,
      "stateMutability": "view",
      "type": "function"
    },
    {
      "constant": true,
      "inputs": [],
      "name": "getLenders",
      "outputs": [
        {
          "name": "",
          "type": "address[]"
        }
      ],
      "payable": false,
      "stateMutability": "view",
      "type": "function"
    },
    {
      "constant": true,
      "inputs": [
        {
          "name": "_lender",
          "type": "address"
        }
      ],
      "name": "getLenderDetails",
      "outputs": [
        {
          "name": "",
          "type": "string"
        },
        {
          "name": "",
          "type": "string"
        }
      ],
      "payable": false,
      "stateMutability": "view",
      "type": "function"
    },
    {
      "constant": false,
      "inputs": [
        {
          "name": "lender",
          "type": "address"
        },
        {
          "name": "borrower",
          "type": "address"
        },
        {
          "name": "term",
          "type": "uint256"
        },
        {
          "name": "amount",
          "type": "uint256"
        },
        {
          "name": "interest",
          "type": "uint256"
        }
      ],
      "name": "createAgreement",
      "outputs": [],
      "payable": false,
      "stateMutability": "nonpayable",
      "type": "function"
    },
    {
      "constant": false,
      "inputs": [
        {
          "name": "_fname",
          "type": "string"
        },
        {
          "name": "_lname",
          "type": "string"
        },
        {
          "name": "_email",
          "type": "string"
        },
        {
          "name": "_pan",
          "type": "string"
        },
        {
          "name": "_aadhar",
          "type": "string"
        }
      ],
      "name": "createLender",
      "outputs": [],
      "payable": false,
      "stateMutability": "nonpayable",
      "type": "function"
    },
    {
      "constant": true,
      "inputs": [
        {
          "name": "_address",
          "type": "address"
        }
      ],
      "name": "getBorrowerShort",
      "outputs": [
        {
          "name": "",
          "type": "string"
        },
        {
          "name": "",
          "type": "string"
        },
        {
          "name": "",
          "type": "uint256"
        },
        {
          "name": "",
          "type": "uint256"
        },
        {
          "name": "",
          "type": "uint256"
        },
        {
          "name": "",
          "type": "string"
        }
      ],
      "payable": false,
      "stateMutability": "view",
      "type": "function"
    },
    {
      "constant": true,
      "inputs": [],
      "name": "getTotalRequests",
      "outputs": [
        {
          "name": "",
          "type": "uint256"
        }
      ],
      "payable": false,
      "stateMutability": "view",
      "type": "function"
    },
    {
      "constant": true,
      "inputs": [],
      "name": "countBorrowers",
      "outputs": [
        {
          "name": "",
          "type": "uint256"
        }
      ],
      "payable": false,
      "stateMutability": "view",
      "type": "function"
    }
  ],
  "bytecode": "0x6060604052341561000f57600080fd5b6123358061001e6000396000f3006060604052600436106100c5576000357c0100000000000000000000000000000000000000000000000000000000900463ffffffff1680633904fcee146100ca5780633c26d83a146101035780633f51034a146103595780635236cd63146105645780636854786a1461059d578063708cddb01461060757806382926875146106dd57806389ff2029146107475780639aebccc814610865578063b6cd14b0146108d8578063e7b047f514610a41578063f0e22d5214610be0578063f57cab8014610c09575b600080fd5b34156100d557600080fd5b610101600480803573ffffffffffffffffffffffffffffffffffffffff16906020019091905050610c32565b005b341561010e57600080fd5b610357600480803590602001909190803590602001908201803590602001908080601f0160208091040260200160405190810160405280939291908181526020018383808284378201915050505050509190803590602001908201803590602001908080601f0160208091040260200160405190810160405280939291908181526020018383808284378201915050505050509190803590602001909190803590602001909190803590602001909190803590602001908201803590602001908080601f0160208091040260200160405190810160405280939291908181526020018383808284378201915050505050509190803590602001908201803590602001908080601f0160208091040260200160405190810160405280939291908181526020018383808284378201915050505050509190803590602001908201803590602001908080601f0160208091040260200160405190810160405280939291908181526020018383808284378201915050505050509190803590602001908201803590602001908080601f0160208091040260200160405190810160405280939291908181526020018383808284378201915050505050509190803590602001908201803590602001908080601f0160208091040260200160405190810160405280939291908181526020018383808284378201915050505050509190803590602001908201803590602001908080601f01602080910402602001604051908101604052809392919081815260200183838082843782019150505050505091905050610cd3565b005b341561036457600080fd5b610390600480803573ffffffffffffffffffffffffffffffffffffffff16906020019091905050610eb7565b604051808060200180602001888152602001878152602001868152602001806020018060200185810385528c818151815260200191508051906020019080838360005b838110156103ee5780820151818401526020810190506103d3565b50505050905090810190601f16801561041b5780820380516001836020036101000a031916815260200191505b5085810384528b818151815260200191508051906020019080838360005b83811015610454578082015181840152602081019050610439565b50505050905090810190601f1680156104815780820380516001836020036101000a031916815260200191505b50858103835287818151815260200191508051906020019080838360005b838110156104ba57808201518184015260208101905061049f565b50505050905090810190601f1680156104e75780820380516001836020036101000a031916815260200191505b50858103825286818151815260200191508051906020019080838360005b83811015610520578082015181840152602081019050610505565b50505050905090810190601f16801561054d5780820380516001836020036101000a031916815260200191505b509b50505050505050505050505060405180910390f35b341561056f57600080fd5b61059b600480803573ffffffffffffffffffffffffffffffffffffffff169060200190919050506113d4565b005b34156105a857600080fd5b6105b0611626565b6040518080602001828103825283818151815260200191508051906020019060200280838360005b838110156105f35780820151818401526020810190506105d8565b505050509050019250505060405180910390f35b341561061257600080fd5b61065d600480803573ffffffffffffffffffffffffffffffffffffffff1690602001909190803573ffffffffffffffffffffffffffffffffffffffff169060200190919050506116ba565b604051808473ffffffffffffffffffffffffffffffffffffffff1673ffffffffffffffffffffffffffffffffffffffff1681526020018373ffffffffffffffffffffffffffffffffffffffff1673ffffffffffffffffffffffffffffffffffffffff16815260200182151515158152602001935050505060405180910390f35b34156106e857600080fd5b6106f06117a8565b6040518080602001828103825283818151815260200191508051906020019060200280838360005b83811015610733578082015181840152602081019050610718565b505050509050019250505060405180910390f35b341561075257600080fd5b61077e600480803573ffffffffffffffffffffffffffffffffffffffff1690602001909190505061183c565b604051808060200180602001838103835285818151815260200191508051906020019080838360005b838110156107c25780820151818401526020810190506107a7565b50505050905090810190601f1680156107ef5780820380516001836020036101000a031916815260200191505b50838103825284818151815260200191508051906020019080838360005b8381101561082857808201518184015260208101905061080d565b50505050905090810190601f1680156108555780820380516001836020036101000a031916815260200191505b5094505050505060405180910390f35b341561087057600080fd5b6108d6600480803573ffffffffffffffffffffffffffffffffffffffff1690602001909190803573ffffffffffffffffffffffffffffffffffffffff169060200190919080359060200190919080359060200190919080359060200190919050506119d8565b005b34156108e357600080fd5b610a3f600480803590602001908201803590602001908080601f0160208091040260200160405190810160405280939291908181526020018383808284378201915050505050509190803590602001908201803590602001908080601f0160208091040260200160405190810160405280939291908181526020018383808284378201915050505050509190803590602001908201803590602001908080601f0160208091040260200160405190810160405280939291908181526020018383808284378201915050505050509190803590602001908201803590602001908080601f0160208091040260200160405190810160405280939291908181526020018383808284378201915050505050509190803590602001908201803590602001908080601f01602080910402602001604051908101604052809392919081815260200183838082843782019150505050505091905050611ab9565b005b3415610a4c57600080fd5b610a78600480803573ffffffffffffffffffffffffffffffffffffffff16906020019091905050611c26565b6040518080602001806020018781526020018681526020018581526020018060200184810384528a818151815260200191508051906020019080838360005b83811015610ad2578082015181840152602081019050610ab7565b50505050905090810190601f168015610aff5780820380516001836020036101000a031916815260200191505b50848103835289818151815260200191508051906020019080838360005b83811015610b38578082015181840152602081019050610b1d565b50505050905090810190601f168015610b655780820380516001836020036101000a031916815260200191505b50848103825285818151815260200191508051906020019080838360005b83811015610b9e578082015181840152602081019050610b83565b50505050905090810190601f168015610bcb5780820380516001836020036101000a031916815260200191505b50995050505050505050505060405180910390f35b3415610beb57600080fd5b610bf3611fbb565b6040518082815260200191505060405180910390f35b3415610c1457600080fd5b610c1c611fc8565b6040518082815260200191505060405180910390f35b6000600260003373ffffffffffffffffffffffffffffffffffffffff1673ffffffffffffffffffffffffffffffffffffffff16815260200190815260200160002060008373ffffffffffffffffffffffffffffffffffffffff1673ffffffffffffffffffffffffffffffffffffffff168152602001908152602001600020905060018160010160146101000a81548160ff0219169083151502179055505050565b6000600160003373ffffffffffffffffffffffffffffffffffffffff1673ffffffffffffffffffffffffffffffffffffffff16815260200190815260200160002090506001151581600d0160009054906101000a900460ff1615151415610d3957600080fd5b8c81600001819055508b816001019080519060200190610d5a929190611fd5565b508a816002019080519060200190610d73929190611fd5565b5089816003018190555088816004018190555087816005018190555085816007019080519060200190610da7929190611fd5565b5084816008019080519060200190610dc0929190611fd5565b508381600a019080519060200190610dd9929190611fd5565b508281600b019080519060200190610df2929190611fd5565b508181600c019080519060200190610e0b929190611fd5565b5086816006019080519060200190610e24929190611fd5565b50600181600d0160006101000a81548160ff021916908315150217905550600160048054806001018281610e589190612055565b9160005260206000209001600033909190916101000a81548173ffffffffffffffffffffffffffffffffffffffff021916908373ffffffffffffffffffffffffffffffffffffffff160217905550505050505050505050505050505050565b610ebf612081565b610ec7612081565b6000806000610ed4612081565b610edc612081565b60001515600260008a73ffffffffffffffffffffffffffffffffffffffff1673ffffffffffffffffffffffffffffffffffffffff16815260200190815260200160002060003373ffffffffffffffffffffffffffffffffffffffff1673ffffffffffffffffffffffffffffffffffffffff16815260200190815260200160002060010160149054906101000a900460ff1615151415610f7a57600080fd5b600160008973ffffffffffffffffffffffffffffffffffffffff1673ffffffffffffffffffffffffffffffffffffffff168152602001908152602001600020600101600160008a73ffffffffffffffffffffffffffffffffffffffff1673ffffffffffffffffffffffffffffffffffffffff168152602001908152602001600020600201600160008b73ffffffffffffffffffffffffffffffffffffffff1673ffffffffffffffffffffffffffffffffffffffff16815260200190815260200160002060030154600160008c73ffffffffffffffffffffffffffffffffffffffff1673ffffffffffffffffffffffffffffffffffffffff16815260200190815260200160002060040154600160008d73ffffffffffffffffffffffffffffffffffffffff1673ffffffffffffffffffffffffffffffffffffffff16815260200190815260200160002060050154600160008e73ffffffffffffffffffffffffffffffffffffffff1673ffffffffffffffffffffffffffffffffffffffff168152602001908152602001600020600a01600160008f73ffffffffffffffffffffffffffffffffffffffff1673ffffffffffffffffffffffffffffffffffffffff168152602001908152602001600020600601868054600181600116156101000203166002900480601f0160208091040260200160405190810160405280929190818152602001828054600181600116156101000203166002900480156111e05780601f106111b5576101008083540402835291602001916111e0565b820191906000526020600020905b8154815290600101906020018083116111c357829003601f168201915b50505050509650858054600181600116156101000203166002900480601f01602080910402602001604051908101604052809291908181526020018280546001816001161561010002031660029004801561127c5780601f106112515761010080835404028352916020019161127c565b820191906000526020600020905b81548152906001019060200180831161125f57829003601f168201915b50505050509550818054600181600116156101000203166002900480601f0160208091040260200160405190810160405280929190818152602001828054600181600116156101000203166002900480156113185780601f106112ed57610100808354040283529160200191611318565b820191906000526020600020905b8154815290600101906020018083116112fb57829003601f168201915b50505050509150808054600181600116156101000203166002900480601f0160208091040260200160405190810160405280929190818152602001828054600181600116156101000203166002900480156113b45780601f10611389576101008083540402835291602001916113b4565b820191906000526020600020905b81548152906001019060200180831161139757829003601f168201915b505050505090509650965096509650965096509650919395979092949650565b6000600260008373ffffffffffffffffffffffffffffffffffffffff1673ffffffffffffffffffffffffffffffffffffffff16815260200190815260200160002060003373ffffffffffffffffffffffffffffffffffffffff1673ffffffffffffffffffffffffffffffffffffffff1681526020019081526020016000209050338160000160006101000a81548173ffffffffffffffffffffffffffffffffffffffff021916908373ffffffffffffffffffffffffffffffffffffffff160217905550818160010160006101000a81548173ffffffffffffffffffffffffffffffffffffffff021916908373ffffffffffffffffffffffffffffffffffffffff16021790555060008160010160146101000a81548160ff02191690831515021790555060016005805480600101828161150d9190612095565b916000526020600020906002020160008490919091506000820160009054906101000a900473ffffffffffffffffffffffffffffffffffffffff168160000160006101000a81548173ffffffffffffffffffffffffffffffffffffffff021916908373ffffffffffffffffffffffffffffffffffffffff1602179055506001820160009054906101000a900473ffffffffffffffffffffffffffffffffffffffff168160010160006101000a81548173ffffffffffffffffffffffffffffffffffffffff021916908373ffffffffffffffffffffffffffffffffffffffff1602179055506001820160149054906101000a900460ff168160010160146101000a81548160ff021916908315150217905550505050505050565b61162e6120c7565b60048054806020026020016040519081016040528092919081815260200182805480156116b057602002820191906000526020600020905b8160009054906101000a900473ffffffffffffffffffffffffffffffffffffffff1673ffffffffffffffffffffffffffffffffffffffff1681526020019060010190808311611666575b5050505050905090565b600080600080600260008773ffffffffffffffffffffffffffffffffffffffff1673ffffffffffffffffffffffffffffffffffffffff16815260200190815260200160002060008673ffffffffffffffffffffffffffffffffffffffff1673ffffffffffffffffffffffffffffffffffffffff16815260200190815260200160002090508060010160009054906101000a900473ffffffffffffffffffffffffffffffffffffffff168160000160009054906101000a900473ffffffffffffffffffffffffffffffffffffffff168260010160149054906101000a900460ff16935093509350509250925092565b6117b06120c7565b600380548060200260200160405190810160405280929190818152602001828054801561183257602002820191906000526020600020905b8160009054906101000a900473ffffffffffffffffffffffffffffffffffffffff1673ffffffffffffffffffffffffffffffffffffffff16815260200190600101908083116117e8575b5050505050905090565b611844612081565b61184c612081565b60008060008573ffffffffffffffffffffffffffffffffffffffff1673ffffffffffffffffffffffffffffffffffffffff16815260200190815260200160002090508060000181600101818054600181600116156101000203166002900480601f01602080910402602001604051908101604052809291908181526020018280546001816001161561010002031660029004801561192b5780601f106119005761010080835404028352916020019161192b565b820191906000526020600020905b81548152906001019060200180831161190e57829003601f168201915b50505050509150808054600181600116156101000203166002900480601f0160208091040260200160405190810160405280929190818152602001828054600181600116156101000203166002900480156119c75780601f1061199c576101008083540402835291602001916119c7565b820191906000526020600020905b8154815290600101906020018083116119aa57829003601f168201915b505050505090509250925050915091565b60008486338686866119e86120db565b808773ffffffffffffffffffffffffffffffffffffffff1673ffffffffffffffffffffffffffffffffffffffff1681526020018673ffffffffffffffffffffffffffffffffffffffff1673ffffffffffffffffffffffffffffffffffffffff1681526020018573ffffffffffffffffffffffffffffffffffffffff1673ffffffffffffffffffffffffffffffffffffffff1681526020018481526020018381526020018281526020019650505050505050604051809103906000f0801515611aaf57600080fd5b9050505050505050565b60008060003373ffffffffffffffffffffffffffffffffffffffff1673ffffffffffffffffffffffffffffffffffffffff1681526020019081526020016000209050600115158160050160009054906101000a900460ff1615151415611b1e57600080fd5b85816000019080519060200190611b36929190611fd5565b5084816001019080519060200190611b4f929190611fd5565b5083816002019080519060200190611b68929190611fd5565b5082816003019080519060200190611b81929190611fd5565b5081816004019080519060200190611b9a929190611fd5565b5060018160050160006101000a81548160ff021916908315150217905550600160038054806001018281611bce9190612055565b9160005260206000209001600033909190916101000a81548173ffffffffffffffffffffffffffffffffffffffff021916908373ffffffffffffffffffffffffffffffffffffffff1602179055505050505050505050565b611c2e612081565b611c36612081565b6000806000611c43612081565b600160008873ffffffffffffffffffffffffffffffffffffffff1673ffffffffffffffffffffffffffffffffffffffff168152602001908152602001600020600101600160008973ffffffffffffffffffffffffffffffffffffffff1673ffffffffffffffffffffffffffffffffffffffff168152602001908152602001600020600201600160008a73ffffffffffffffffffffffffffffffffffffffff1673ffffffffffffffffffffffffffffffffffffffff16815260200190815260200160002060030154600160008b73ffffffffffffffffffffffffffffffffffffffff1673ffffffffffffffffffffffffffffffffffffffff16815260200190815260200160002060040154600160008c73ffffffffffffffffffffffffffffffffffffffff1673ffffffffffffffffffffffffffffffffffffffff16815260200190815260200160002060050154600160008d73ffffffffffffffffffffffffffffffffffffffff1673ffffffffffffffffffffffffffffffffffffffff168152602001908152602001600020600701858054600181600116156101000203166002900480601f016020809104026020016040519081016040528092919081815260200182805460018160011615610100020316600290048015611e675780601f10611e3c57610100808354040283529160200191611e67565b820191906000526020600020905b815481529060010190602001808311611e4a57829003601f168201915b50505050509550848054600181600116156101000203166002900480601f016020809104026020016040519081016040528092919081815260200182805460018160011615610100020316600290048015611f035780601f10611ed857610100808354040283529160200191611f03565b820191906000526020600020905b815481529060010190602001808311611ee657829003601f168201915b50505050509450808054600181600116156101000203166002900480601f016020809104026020016040519081016040528092919081815260200182805460018160011615610100020316600290048015611f9f5780601f10611f7457610100808354040283529160200191611f9f565b820191906000526020600020905b815481529060010190602001808311611f8257829003601f168201915b5050505050905095509550955095509550955091939550919395565b6000600580549050905090565b6000600480549050905090565b828054600181600116156101000203166002900490600052602060002090601f016020900481019282601f1061201657805160ff1916838001178555612044565b82800160010185558215612044579182015b82811115612043578251825591602001919060010190612028565b5b50905061205191906120eb565b5090565b81548183558181151161207c5781836000526020600020918201910161207b91906120eb565b5b505050565b602060405190810160405280600081525090565b8154818355818115116120c2576002028160020283600052602060002091820191016120c19190612110565b5b505050565b602060405190810160405280600081525090565b6040516101788061219283390190565b61210d91905b808211156121095760008160009055506001016120f1565b5090565b90565b61218e91905b8082111561218a57600080820160006101000a81549073ffffffffffffffffffffffffffffffffffffffff02191690556001820160006101000a81549073ffffffffffffffffffffffffffffffffffffffff02191690556001820160146101000a81549060ff021916905550600201612116565b5090565b9056006060604052341561000f57600080fd5b60405160c08061017883398101604052808051906020019091908051906020019091908051906020019091908051906020019091908051906020019091908051906020019091905050846000806101000a81548173ffffffffffffffffffffffffffffffffffffffff021916908373ffffffffffffffffffffffffffffffffffffffff16021790555085600160006101000a81548173ffffffffffffffffffffffffffffffffffffffff021916908373ffffffffffffffffffffffffffffffffffffffff16021790555083600260006101000a81548173ffffffffffffffffffffffffffffffffffffffff021916908373ffffffffffffffffffffffffffffffffffffffff1602179055508260038190555081600481905550806005819055505050505050506035806101436000396000f3006060604052600080fd00a165627a7a723058201a58cac4e8b8859fd8363046fab95b5c6560a78a1e831e12c32f8dca958064830029a165627a7a723058208a0fe6fa6ebcbcc6db7fff3e8c42c8c96591cf32c873392f823dcd7c605f6e730029",
  "source": "pragma solidity ^0.4.18;\n\nimport \"./Agreements.sol\";\n    \ncontract Interface {\n    \n    struct Borrower {\n        uint age;\n        string fName;\n        string lName;\n        uint creditRating;\n        uint term;\n        uint amount;\n        string pan;\n        string purpose;\n        string phoneNumber;\n        string email;\n        string aadhar;\n        string city;\n        string company;\n        \n        bool created;\n        \n    }\n    \n    struct Lender {\n        string fname;\n        string lname;\n        string email;\n        string pan;\n        string aadhar;\n        bool created;\n        int rating;\n    }\n    \n    struct P2PPortal {\n        string name;\n    }\n    \n    struct CIC{\n        string name;\n    }\n    \n    struct RequestBorrowerDetail{\n        address lender;\n        address borrower;\n        bool borrowerAccepted;\n    }\n    \n    \n    mapping (address => Lender) private lenders;\n    mapping (address => Borrower) private borrowers;\n    mapping (address => mapping(address=>RequestBorrowerDetail)) private detailRequests;\n    \n    \n    address[] private lenderActs;\n    address[] private borrowerActs;\n    RequestBorrowerDetail[] private totalRequests;\n    \n    function RequestBorrowerDetails(address borrower) public {\n        var detailRequest = detailRequests[borrower][msg.sender];\n        detailRequest.lender = msg.sender;\n        detailRequest.borrower = borrower;\n        detailRequest.borrowerAccepted = false;\n        totalRequests.push(detailRequest) -1;\n    }\n    \n    function getTotalRequests() view public returns(uint){\n        return totalRequests.length;\n    }\n    \n    function getRequestDetail(address borrower, address lender) view public returns(address, address, bool){\n        var req =  detailRequests[borrower][lender];\n        return (req.borrower, req.lender, req.borrowerAccepted);\n    }\n    \n    function AcceptDetailRequest(address lender) public {\n        var detailRequest = detailRequests[msg.sender][lender];\n        detailRequest.borrowerAccepted = true;\n    }\n    \n    function createAgreement(address lender, address borrower, uint term, uint amount, uint interest) public {\n        var agreement = new Agreements(borrower, lender, msg.sender, term, amount, interest);\n    }\n    \n    function createLender(string _fname, string _lname, string _email, string _pan, string _aadhar) public{\n        var lender = lenders[msg.sender];\n        if (lender.created == true)\n            revert();\n        \n        lender.fname = _fname;\n        lender.lname = _lname;\n        lender.email = _email;\n        lender.pan = _pan;\n        lender.aadhar = _aadhar;\n        lender.created = true;\n        \n        lenderActs.push(msg.sender) -1;\n        \n    }\n    \n    \n    function setBorrower(uint _age, string _fName, string _lName, uint _creditRating, uint _term, uint _amount, string _pan, string _purpose, string _phoneNumber, string _aadhar, string _city, string _company) public {\n        var borrower = borrowers[msg.sender];\n        \n        if(borrower.created == true)\n            revert();\n        \n        borrower.age = _age;\n        borrower.fName = _fName;\n        borrower.lName = _lName;\n        borrower.creditRating = _creditRating;\n        borrower.term = _term;\n        borrower.amount = _amount;\n        borrower.purpose = _purpose;\n        borrower.phoneNumber = _phoneNumber;\n        borrower.aadhar = _aadhar;\n        borrower.city = _city;\n        borrower.company = _company;\n        borrower.pan = _pan;\n\n        borrower.created = true;\n        \n        borrowerActs.push(msg.sender) -1;\n    }\n\n    function getBorrowers() view public returns(address[]) {\n        return borrowerActs;\n    }\n    \n    function getLenders() view public returns(address[]){\n        return lenderActs;\n    }\n    \n    function getLenderDetails(address _lender) view public returns(string,string){\n        var lender = lenders[_lender];\n        return (lender.fname, lender.lname);\n    }\n    \n    function getBorrowerShort(address _address) view public returns (string, string, uint, uint, uint, string) {\n        return (borrowers[_address].fName, borrowers[_address].lName, borrowers[_address].creditRating, borrowers[_address].term, borrowers[_address].amount, borrowers[_address].purpose);\n    }\n    \n    function getBorrowerFull(address _address) view public returns(string, string, uint, uint, uint, string, string){\n        if (detailRequests[_address][msg.sender].borrowerAccepted == false)\n            revert();\n        return (borrowers[_address].fName , borrowers[_address].lName, borrowers[_address].creditRating, borrowers[_address].term, borrowers[_address].amount, borrowers[_address].aadhar, borrowers[_address].pan);\n    }\n    \n    function countBorrowers() view public returns (uint) {\n        return borrowerActs.length;\n    }\n    \n}\n\n\n",
  "sourcePath": "/Users/ishaankapri/projects/fintech-vizag/contracts/Interface.sol",
  "compiler": {
    "name": "solc",
    "version": "0.4.18+commit.9cf6e910.Emscripten.clang"
  },
  "schemaVersion": "1.0.1",
  "updatedAt": "2017-12-02T22:37:49.165Z"
}